:10099D00FC8FFCEFFD45FD6CFDB5FDF5FE33FE490D
:0209AD00FE79D1
:10095400010B0F010A0F020E0010420000000048B4
:100964000058000000000000000042005200004255
:04097400005400002B
:10087B007580FF758911758CD8758AF0D2AFD2A9A6
:10088B00D2AB75B802758CD8758AF0120900E50EDB
:10089B007022E50F24F5600F14601114601324030C
:1008AB00701212001E800D12049280081205CF8068
:0C08BB0003120350750E00750F1080C969
:03001B000209795E
:10097900C0E0C28E850D8BE50CF58DD28EB297D075
:02098900E0325A
:10098B00E4FFFEE4F5110FBF00010EEF643C4E7067
:01099B00F269
:01099C002238
:10082E0012000E1200137F301209DF7F011209DF52
:10083E00C2B67F647E001209AFE4F511F5127F6433
:10084E007E001209AF0512E51270020511C3940A5B
:10085E00E5116480948040E67F3F1209DF7F0C1221
:0D086E0009DF7F061209DF12000E020013E1
:0E09D000E4FFFE0FBF00010EBE4EF8BF20F583
:0109DE0022F6
:1009AF00D3EF9400EE94004007EF1F70F31E80F01A
:0109BF002215
:0E09DF00C2B5C2B78FA0D2B6120003C2B622B4
:0E09ED00C2B5D2B78FA0D2B6120003C2B62296
:060003001209D00209D031
:05000E007F010209DF83
:050013007F020209DF7D
:1009C000EF1475F040A4FFED142F2480FF0209DF1F
:06092C008B118A128913F1
:10093200E4F514AB11AA12A913851482758300126F
:1009420008C7FF600C1209ED0514E514C394324088
:01095200E2C2
:010953002281
:03000B00020205E9
:09020500C0E0C0D075D000C007B4
:10020E00E4FF758CD8758AF075807FE580540FF504
:10021E000B650A603CE50BB40E0A750E00750F00F7
:10022E007510300FE50BB40D0A750E00750F0775BE
:10023E0010370FE50BB40B0A750E00750F04751011
:10024E00340FE50BB4070A750E00750F01751031EA
:10025E000F7580BFE580540FF50B650A603CE50B0A
:10026E00B40E0A750E00750F0F7510460FE50BB420
:10027E000D0A750E00750F087510380FE50BB40BCF
:10028E000A750E00750F057510350FE50BB4070ACC
:10029E00750E00750F027510320F7580DFE58054F4
:1002AE000FF50B650A603CE50BB40E0A750E007572
:1002BE000F0E7510450FE50BB40D0A750E00750F78
:1002CE00097510390FE50BB40B0A750E00750F0684
:1002DE007510360FE50BB4070A750E00750F037512
:1002EE0010330F7580EFE580540FF50B650A603CF7
:1002FE00E50BB40E0A750E00750F0D7510440FE563
:10030E000BB40D0A750E00750F0C7510430FE50B2F
:10031E00B40B0A750E00750F0B7510420FE50BB47A
:10032E00070A750E00750F0A7510410FEFC3940280
:0B033E004006750E00750F10850B0ABD
:07034900D007D0D0D0E03254
:1006FE0053656C6563742066756E6374696F6E0006
:10070E00005265636F7264696E672E2E2E20202054
:10071E00000066756C6C21212020202020202020D6
:10072E0000005265636F72642073617665642020E9
:10073E002000004E6F207265636F7264212100509D
:10074E006C6179696E67207265636F726473000005
:10075E0053656C656374207265636F72642020004C
:10076E0000506C6179696E67207265636F726420E8
:10077E0000004E6F207265636F726421202020206E
:10078E002000007265636F72642064656C65746529
:04079E0064200000D3
:1009000012082E7BFF7A0679FE12092CD28CD3E5D1
:100910000F9409E50E940040F5E50F940EE50E9452
:0C0920000050EBC28C758CD8758AF02258
:10001E0012082E7BFF7A07790F12092C750E0075C8
:10002E000F10D28CD3E50F9400E50E94004014E52A
:10003E000F940AE50E9400500A750800750901C266
:10004E008C800DE50F640F450E70D9F50875090209
:10005E00E4900056F0A3F012098B900057E004F0E4
:10006E007006900056E004F0C3900057E094C890DC
:10007E000056E0940040E0E5096401450860030283
:10008E000168900054E07004A3E0640A70467D019C
:10009E007F021209C07BFF7A07792012092CE490A7
:1000AE000056F0A3F012098B12098B12098B9000E7
:1000BE0057E004F07006900056E004F0C39000572D
:1000CE00E094E8900056E0940340DA750800750954
:1000DE0002020168900054E0FCA3E0FD25E0FFEC75
:1000EE0033FE900052E0FAA3E090000275F0141275
:1000FE0008F4EA75F014A42583F583E5822FF582C2
:10010E00E5833EF583E50EF0A3E50FF0ED04FD7FEC
:10011E00021209C0AF101209ED900055E004F07004
:10012E0006900054E004F0750E00750F10E4900078
:10013E0056F0A3F012098B12098B12098B900057FF
:10014E00E004F07006900056E004F0C3900057E013
:10015E009464900056E0940040DAE5096402450884
:10016E00600302020012082E7BFF7A077930120913
:10017E002CE4900056F0A3F012098B12098B120991
:10018E008B900057E004F07006900056E004F0C328
:10019E00900057E094E8900056E0940340DA750E14
:1001AE0000750F10900001E004F07006900000E062
:1001BE0004F0900055E024FFFD900054E034FFFC65
:1001CE00900053E025E0FF900052E033FE74582F6C
:1001DE00F58274003EF583ECF0A3EDF0E49000544C
:1001EE00F0A3F0900053E004F07006900052E0048B
:0701FE00F022C28C02003068
:1004920012082E900000E07002A3E070377BFF7A12
:1004A20007794112092CE4900056F0A3F012098B4F
:1004B20012098B12098B900057E004F0700690002D
:1004C20056E004F0C3900057E094E8900056E094A0
:1004D2000340DA227BFF7A07794D12092CE490005F
:1004E20056F0A3F0900000E0FEA3E0FFC390005797
:1004F200E09F900056E09E40030205CEE49000602B
:10050200F0A3F0900056E0FCA3E0FD25E0FFEC3301
:10051200FE74582FF58274003EF583E0FEA3E0FFDF
:10052200900060E0FAA3E0FBD39FEA9E400302053D
:10053200BAEB25E0FFEA33FE90000275F014ED12EB
:1005420008F4EC75F014A42583F583E5822FF58277
:10055200E5833EF583A3E025E0FF0582D5820215FF
:10056200831582E033FE749B2FF58274093EF58376
:10057200E493F50C740193F50DD28EE4900062F0D1
:10058200A3F012098B900063E004F0700690006201
:10059200E004F0C3900063E094A0900062E0940F46
:1005A20040E0C28E900061E004F060030205059015
:1005B2000060E004F0020505900057E004F06003DB
:0D05C2000204E6900056E004F00204E62278
:1005CF0012082E900000E07002A3E070377BFF7AD4
:1005DF0007794112092CE4900056F0A3F012098B11
:1005EF0012098B12098B900057E004F070069000EF
:1005FF0056E004F0C3900057E094E8900056E09462
:10060F000340DA227BFF7A07795E12092CD28CD352
:10061F00E50F9400E50E940040F5900001E0950F72
:10062F00900000E0950E40E77D017F011209C07B2D
:10063F00FF7A07796F12092CE4900060F0A3F0E5C0
:10064F000F25E0FFE50E33FE74562FF58274003E42
:10065F00F583E0FEA3E0FF900060E0FCA3E0FDD394
:10066F009FEC9E40030206FDED25E0FFEC33FE906C
:10067F00FFEE75F014E50F1208F4E50E75F014A4F3
:10068F002583F583E5822FF582E5833EF583A3E08D
:10069F0025E0FF0582D5820215831582E033FE74B3
:1006AF009B2FF58274093EF583E493F50C74019347
:1006BF00F50DD28EE4900062F0A3F012098B90003A
:1006CF0063E004F07006900062E004F0C3900063F2
:1006DF00E094A0900062E0940F40E0C28E90006121
:0F06EF00E004F07006900060E004F002064E2276
:1003500012082E900000E07002A3E070377BFF7A55
:1003600007794112092CE4900056F0A3F012098B92
:1003700012098B12098B900057E004F07006900070
:1003800056E004F0C3900057E094E8900056E094E3
:100390000340DA227BFF7A07795E12092CD28CD3D4
:1003A000E50F9400E50E940040F5D3E50F9404E5C5
:1003B0000E940050EAE50F25E0FFE50E33FE74567B
:1003C0002FF58274003EF583E0FEA3E04E70107DB1
:1003D000017F011209C07BFF7A07798002092CE4B2
:1003E000900060F0A3F0E50F25E0FDE50E33FC740E
:1003F000562DF58274003CF583E0FEA3E0FF9000EB
:1004000060E0FAA3E0FBC39FEA9E503AEB25E0FFD1
:10041000EA33FE90FFEE75F014E50F1208F4E50ED6
:1004200075F014A42583F583E5822FF582E5833EDC
:10043000F583E4F0A3F0900061E004F070A8900070
:1004400060E004F080A074562DF58274003CF583C2
:10045000E4F0A3F07D017F011209C07BFF7A0779E8
:100460009112092CE4900056F0A3F012098B1209A6
:100470008B12098B900057E004F07006900056E054
:1004800004F0C3900057E094E8900056E0940340D5
:02049000DA226E
:030000000207A252
:0C07A200787FE4F6D8FD7581140207E9A9
:1008C700BB010CE58229F582E5833AF583E02250E6
:1008D70006E92582F8E622BBFE06E92582F8E22230
:0D08E700E58229F582E5833AF583E493224A
:0C08F400A42582F582E5F03583F583220F
:1007AE0002087BE493A3F8E493A34003F68001F2DE
:1007BE0008DFF48029E493A3F85407240CC8C3334C
:1007CE00C4540F4420C8834004F456800146F6DF1B
:1007DE00E4800B0102040810204080900954E47E4E
:1007EE00019360BCA3FF543F30E509541FFEE49310
:1007FE00A360010ECF54C025E060A840B8E493A3D7
:10080E00FAE493A3F8E493A3C8C582C8CAC583CA01
:10081E00F0A3C8C582C8CAC583CADFE9DEE780BEB9
:01097800007E
:00000001FF
